:100000006F0000096F4000000000000000000000C9
:1000100000000000000000000000000000000000E0
:100020006F40000000000000000000000000000021
:1000300000000000000000000000000000000000C0
:1000400000000000000000000000000000000000B0
:1000500000000000000000000000000000000000A0
:10006000000000006F4000006F4000006F40000083
:100070006F4000006F4000006F4000000000000073
:100080006F00000000000000000000000000000001
:10009000735000307350403097000000938080F61A
:1000A000B7C200029382C2FF23A00200F3221030E5
:1000B00093F2120063960202F322503093F2320060
:1000C00013031000639E6200F322503093F2C2FFCC
:1000D00017030000130343F3639862046F000001E9
:1000E00097020000938242F273905230172700006B
:1000F0001307470C972700009387C70B17280000AA
:100100001308480C6308F700638607019700000096
:10011000E780000B973100009381C189EF00000157
:10012000138101D26F00400E730010009382000013
:1001300093870187138801B263840701EF000006EB
:100140009387018113880187638A0703EF00000505
:1001500097470000938707E317480000130878EAE1
:100160001378C8FF638C0701EF004003938701B247
:10017000138801B263840701EF00400213870181F5
:1001800093870181138801816306F7006384070167
:10019000EF00C00293800200678000006364F804EF
:1001A000B368F80093F83800634E100323A00700EB
:1001B00093874700E3CC07FF678000006364F80281
:1001C000B368F80093F83800634E100183280700E5
:1001D00023A017019387470013074700E3C807FFD1
:1001E0006F0080006F00000067800000F322203461
:1001F00073231034F32300306F000000B3020000BB
:10020000B7420080678002006F10D007678000004F
:1002100083274500130101FF2324810023261100B9
:10022000232291002320210113071000130405004D
:100230006388E70263840706130720006398E70AD0
:1002400003250500032481008320C100832441008D
:100250000329010013050509130101016F00C05DA9
:100260000325050013050509EF00806193040500CF
:100270000325040013054509EF00806013150501EF
:10028000336595008320C10003248100832441004D
:100290000329010013010101678000000325050007
:1002A00013050509EF0040629304050003250400CF
:1002B00013054509EF0040611309050003250400FB
:1002C0001319890013058509EF0000601315050156
:1002D0003369A90003250400B36499001305C50917
:1002E000EF00805E131585016FF09FF97300100019
:1002F000130500006FF01FF983274500130101FF6C
:100300002324810023261100232291002320210190
:1003100013071000130405006388E70263840706CF
:10032000130720006398E70A0325050003248100D2
:100330008320C10083244100032901001305050A1D
:10034000130101016F00404F032505001305050A45
:10035000EF00005393040500032504001305450A2C
:10036000EF00005213150501336595008320C1008D
:1003700003248100832441000329010013010101AA
:1003800067800000032505001305050AEF00404FB4
:1003900093040500032504001305450AEF00404EB1
:1003A0001309050003250400131989001305850AA4
:1003B000EF00004D131505013369A9000325040062
:1003C000B36499001305C50AEF00804B131585012E
:1003D0006FF09FF973001000130500006FF01FF914
:1003E00083274500130101FF23248100232291006C
:1003F0002326110013071000130405009384050041
:100400006380E70463820706130720006394E70A0A
:10041000032505001305050AEF00804113050400BC
:10042000EFF09FED6384A400730010008320C100EF
:10043000032481008324410013010101678000002F
:10044000032505009395050193D505011305050ABC
:10045000EF0080420325040093D504011305450AEB
:10046000EF0080416FF09FFB0325050093F5F50F2A
:100470001305050AEF00C0440325040093D584004A
:1004800093F5F50F1305450AEF008043032504009B
:1004900093D5040193F5F50F1305850AEF0040424B
:1004A0000325040093D584011305C50AEF004041DC
:1004B0006FF0DFF6730010006FF05FF6130101FEBE
:1004C000232821012324410123225101232E11003D
:1004D000232C8100232A9100232631019307F00168
:1004E000930A050013890500130A060063F4B70098
:1004F0007300100003A44A0093041000630C9404DA
:10050000630A040A930720006312F40403A50A0097
:10051000B39424011305050AEF00003233E4A4006C
:1005200063160A0093C4F4FF33F4A40003A50A0081
:10053000930504001305050AEF00802F03A50A00A8
:100540001305050AEF00402F6300850C73001000AF
:100550006F00800B83A70A009359490093992900E3
:100560009387070A9374F900B389F9003314940050
:100570001385090013140401EF0080301354044163
:1005800063160A021344F4FF3374A4001314040125
:10059000135404011385090093050400EF00C02DD6
:1005A00013850900EF00C02D6FF01FFA3364A4001B
:1005B0006FF0DFFD83A70A00935939009399290052
:1005C0009387070A13797900B389F900B39424015A
:1005D0001385090093948401EF00002F93D4844184
:1005E00063160A0493C4F4FFB3F4A40093F4F40F65
:1005F0001385090093850400EF00802C1385090002
:10060000EF00802CE31495F48320C10103248101C1
:1006100083244101032901018329C100032A8100A8
:10062000832A41001301010267800000B3E4A400A3
:100630006FF0DFFB938701811307200023A2E700FF
:100640003727017023A0E70067800000130101FF36
:100650001385018123261100EFF09FBB8320C10089
:10066000B70700C03375F500130101016780000072
:10067000032505006F00402503250500130101FF38
:100680002326110013054501EF0000248320C1003B
:100690001355550013751500130101016780000003
:1006A000032505006F00C021032505001305850003
:1006B0006F00802103250500130545016F00C02050
:1006C000130101FE232C81001304050003250500FE
:1006D000232E11002326B10013054500EF00C01E94
:1006E0008325C1008320C10193F5F500B3E5A50082
:1006F000032504000324810193F5F50F130545003C
:10070000130101026F00C01B03250500130101FE48
:10071000232E1100130545002326B100EF00C01A57
:100720008325C1008320C1013375B5003335A00096
:100730001301010267800000130101FE232C8100D8
:100740001304050003250500232E11002326B10004
:1007500013054500EF0040178325C1008320C10128
:1007600093C5F5FFB375B50003250400032481018B
:1007700093F5F50013054500130101026F004014C5
:10078000130101FF9305F0002326110023248100AB
:100790002322910013040500EFF01FFA0325040043
:1007A0001305C500EF00401293040500936505F89A
:1007B0000325040093F5F50F1305C500EF00401065
:1007C000032504009305000013054500EF00400FCA
:1007D0000325040013054500EF00000F0325040066
:1007E0009305B001EF00C00D03250400EF00C00D1C
:1007F0000325040093F5F4071305C500EF00400C32
:1008000003250400930530001305C500EF00400BDD
:1008100003250400032481008320C10083244100B8
:100820009305700013058500130101016F00400955
:100830002320B500678000000325050067800000C5
:10084000138E0600331EBE00337ECE000323050048
:100850009303060093C3F3FF337373003363C30141
:100860002320650067800000032505003375C5005F
:100870003355B500678000002310B5006780000085
:100880000315050067800000138E0600331EBE00AE
:10089000337ECE00031305009303060093C3F3FFDA
:1008A000337373003363C301231065006780000056
:1008B000031505003375C5003355B500678000008A
:1008C0002300B50067800000030505006780000075
:1008D000138E0600331EBE00337ECE0003030500D8
:1008E0009303060093C3F3FF337373003363C301B1
:1008F0002300650067800000030505003375C5000F
:100900003355B5006780000023A0A18267800000F6
:1009100023ACA18067800000130101FF2324810024
:100920001384818103250400930510002326110000
:10093000EF00C01D9387018203A5070093051000F7
:10094000EFF01FD803250400032481008320C10099
:1009500093051000130101016F00001D13874182F0
:1009600083270700130101FF232611009387170037
:100970002320F700EF1040779387818183A707003A
:100980008320C1001307100083A7070023A8E700F6
:1009900013010101678000009387818183A707000D
:1009A00083A7070023A0A70067800000130101FFB1
:1009B00023248100138401820325040023261100CF
:1009C00023229100EFF01FCF9304050003250400BC
:1009D000EFF09FCD137545006302050293F41400F8
:1009E000638E040003250400EFF09FC8EF1040322F
:1009F000372500001305E596EFF01FFA03250400E4
:100A000093052000EFF05FD0630205040325040086
:100A1000EFF09FC6630C050283C7818203250400A3
:100A2000638007049387C18183A7070083C50700FC
:100A30001387170023AEE180EFF09FC69387818272
:100A400083C707009387F7FF2384F1828320C100C7
:100A50000324810083244100130101016780000009
:100A600093052000EFF05FCD032481008320C100B7
:100A700083244100130101016F10401A9387018202
:100A800003A50700130101FF23261100EFF0DFC1CA
:100A90001375650063040500EFF05FF193878181B2
:100AA00003A50700EF00000A630805008320C100CA
:100AB000130101016FF09FEA8320C10013010101BE
:100AC0006780000023AEA1802384B18293870182D6
:100AD00003A50700930520006FF09FBE83A70500C4
:100AE0002320F50003C7550023A4E70083C7450072
:100AF0000327050093F7F7002326F7008327050057
:100B00001307100023A8E700678000008327050073
:100B100083A6870013F7E6FF6384050013E716003A
:100B200023A4E700678000008327050083A68700D1
:100B300013F7D6FF6384050013E7260023A4E7001C
:100B4000678000008327050003A587011375F50F53
:100B500067800000971700009387C76583A7070089
:100B60003707030023A0E70067800000130101FF9F
:100B700023229100938491822324810003C40400E2
:100B80002320210113890500B30786001386050081
:100B90009305050013850700232611003304240163
:100BA000EF10C0148320C10023808400032481003F
:100BB0008324410003290100130101016780000023
:100BC000130101FD2324810223229102232021030A
:100BD000232E3101232C4101232A51012326110206
:100BE0009307A0012300F6009307F0FCA300F60092
:100BF0009307C0FF2301F6009307D001A301F6007D
:100C00008347050013040600130A05002302F600BB
:100C10008347150093840500938A9182A302F6000E
:100C20008347250093050000A30306002303F60075
:100C3000130584009307800013068000A384F182CB
:100C400093890600EF10000903C90A001307800208
:100C5000130989001379F90FA384218383470A00BC
:100C6000638EE718636AF70E130790016382E71437
:100C70006366F70A638207121307C000638EE71CDE
:100C800083C59182938705FFA303F40013054400F5
:100C9000130600009385C5FFEF00100683C79182FD
:100CA0003307F400935685012300D70013871700FC
:100CB0001377F70F3307E400935605012300D7009D
:100CC000138727001377F70F3307E4009356850047
:100CD0002300D700138747009387370093F7F70F58
:100CE0003304F4002300A4008320C1020324810202
:100CF0001377F70F2380E900A384E1828324410264
:100D0000032901028329C101032A8101832A4101A8
:100D10001305000013010103678000001307600240
:100D20006380E70A13077002E39CE7F413064000B0
:100D3000938504001305C100EF00507B8327C10099
:100D400013973701631C07081306100093850400EE
:100D5000130520006F00000A1307C004638CE7101E
:100D6000636EF700130790026380E70C1307A0027D
:100D7000E398E7F0EF0090076FF09FF01307D004BF
:100D80006382E7101307E004E39CE7EE130500001D
:100D9000EF00504A6FF0DFEE1306040093054000A9
:100DA0001715000013050540EFF05FDC6FF05FEDF5
:100DB0001306040083453A00138504006FF0DFFE3C
:100DC00013064000938504001305C100EF00107264
:100DD0008327C1001397470163080700930770003A
:100DE000A302F4006FF0DFE91306100093850400FE
:100DF00013051000EF00D0606FF09FE8130640006D
:100E0000938504001305C100EF00506E0325C10057
:100E10009377F507E39407FC1306000893854400D5
:100E2000EF0010226FF0DFE5130640009385040009
:100E30001305C100EF00906B0325C10033062401A8
:100E400093050008EF00900083C70A00938707F816
:100E5000A384F1826FF0DFE2B7B7000093877700D9
:100E60002326F10013060400930540001305C1007A
:100E70006FF09FF3130630009385040013053000D4
:100E80006FF05FF7EFF08FB76FF09FDF130101FF97
:100E900023248100130405000325050093060000A8
:100EA000130610009305000023261100EFF05FA247
:100EB00003250400930530001305C501EFF05FA082
:100EC000032504009305F00F13054500EFF05F9F25
:100ED00003250400032481008320C1009306100031
:100EE0001306100093050000130101016FF05F9ECF
:100EF000130101FF232481002322910023202101DB
:100F0000232611001304050013890500930406002D
:100F100063140500730010006314090073001000CF
:100F20009307000263F69700730010006F008000C3
:100F3000E38C04FE6306040A6304090A1306C00472
:100F40009305000013050400EF00D0589387F4FFC9
:100F5000939707012320240193D707011307F0017A
:100F60006374F7009304100093060000130610004A
:100F7000231294041305090093050000EFF05F9518
:100F8000032504009305000013054502EFF05F936D
:100F900003250400930530001305C501EFF05F92AF
:100FA000032504009305F00F13054500EFF05F9152
:100FB000032504009305000013058501EFF05F9001
:100FC00003250400032481008320C1008324410001
:100FD0000329010093053000130101016FF05F8EBA
:100FE0008320C100032481008324410003290100E0
:100FF00013010101678000006316050073001000F3
:1010000067800000130101FF232481001304050001
:101010000325050093060000130610009305000049
:1010200023261100EFF0DF8A0325040023240404A3
:10103000930530001305C501EFF09F8803250400D8
:101040009305F00F13054500EFF09F87032504007B
:101050009305000013058501EFF09F86032504002A
:10106000032481008320C100930530001301010196
:101070006FF01F85631C050073001000930770005C
:1010800063F6B70A730010006780000093077000D2
:10109000E3EAB7FE130101FF2324810013040500D6
:1010A00003250500232291001306200093840500E8
:1010B0009305100023261100EFF01F84630E050432
:1010C00003250400130600019305400013050502E3
:1010D000EFF09F82930710006316F50013050400DC
:1010E000EFF0DFDA0325040013054502EFF0CFFD32
:1010F000832704009305100003248100B395950015
:101100008320C10083244100B3E5A5001385470275
:10111000130101016FF0CFFA8320C1000324810085
:1011200083244100130101016780000067800000F3
:101130006310052A73001000678000001305C500C6
:101140009305000063764401B3878B0083C50700D5
:101150001304140013140401EFF08FED1354040171
:101160006F0080316312543383574904637EF43037
:10117000130585029305000063764401B3878B0055
:1011800083C507001304140013140401EFF04FEAA1
:10119000135404016F00402F8357490463FAF4028B
:1011A000B3878B000325090083C50700631254072A
:1011B000130585021304140093841400131404010E
:1011C00093940401EFF0CFE61354040193D4040187
:1011D00003250900130640009305200013050502AE
:1011E000EFF08FF16310052C032509009389190096
:1011F0009384F4FF130585009399090193940401E6
:10120000EFF08FE393D9090193D404016F00802993
:101210001305C5006FF01FFA8357490463F8F40201
:101220006376540303250900130414009384140007
:10123000930500001305C5001314040193940401E1
:10124000EFF00FDF1354040193D4040103250900C8
:10125000130640009305200013050502EFF0CFE9C7
:101260006314052403250900938919009384F4FF6E
:10127000130585009399090193940401EFF0CFDBE6
:1012800093D9090193D404016F00002283574904C4
:1012900063F6F40203250900130414009384140078
:1012A000930500001305C500131404019394040171
:1012B000EFF00FD81354040193D40401032509005F
:1012C000130640009305200013050502EFF0CFE25E
:1012D0006310051E03250900938919009384F4FF08
:1012E00013058500EFF04FD5B3074B01130A1A0021
:1012F000131A0A0193990901939404012380A7000A
:10130000135A0A0193D9090193D404016F00401ABA
:101310008357490463F6F4020325090013041400FB
:10132000938414009305000013058502131404012F
:1013300093940401EFF0CFCF1354040193D404012C
:10134000032509001306400093052000130505023C
:10135000EFF08FDA63100516032509009389190051
:101360009384F4FF13058500EFF00FCDB3074B0115
:10137000130A1A00131A0A0193990901939404019C
:101380002380A700135A0A0193D9090193D40401B9
:101390006F0040120325090013064000930520004A
:1013A00013050502EFF04FD5631005120325090060
:1013B00013058500EFF04FC8B3074B01130A1A005D
:1013C000131A0A012380A700135A0A016F00000FA5
:1013D000130101FD23202103130905000325050046
:1013E000232C410123267101130A0600938B05006B
:1013F0001306200093051000232A510123286101C0
:10140000232611022324810223229102232E31015B
:10141000930A0700138B0600EFF00FCE6308050A4E
:10142000B30A5A0163840A0A0325090093053000B0
:10143000938AFAFF1305C501EFF08FC80325090051
:10144000130600019305400013050502EFF0CFCA13
:10145000930710006316F50013050900EFF01FA3B2
:1014600003250900930600001306100093050000F1
:10147000EFF00FC61304000003250900E37454CFF6
:1014800083574904E36CF4CA03250900930610004E
:101490001306100093050000EFF08FC393040400BF
:1014A00093090000E36A44CFE3E849D7130A000038
:1014B000E36E54DDE30E54E5B389494133043A0148
:1014C0001314040113540401E3F68AEC8320C102CF
:1014D0000324810283244102032901028329C101DB
:1014E000032A8101832A4101032B0101832BC100BF
:1014F00013010103678000003727C104B305B5005D
:10150000130777DB6396A5001305060067800000CC
:10151000130515008347F5FF939787013346F600BF
:1015200093078000930606001316160063D4060086
:101530003346E6009387F7FF93F7F70FE39407FE30
:101540006FF05FFC9387C1821307200023A2E7009E
:101550003727017023A0E7006780000093756500BE
:101560001385C1826FE0DFE73336A00093050000EA
:101570001385C1826FE09FF4130101FE93076000A1
:101580009305C10013070000930600001306100026
:1015900013850197232E11002306F100EFF05FB9A8
:1015A0008320C1011301010267800000130101FFC4
:1015B0002324810013840197B7850170130504006B
:1015C0001306000223261100EFF09F92130504007A
:1015D000EFF09FA213050400032481008320C100C3
:1015E00093050000130101016FF0DFA8130101FE54
:1015F000232C810093076006138401972304F100D4
:101600009306F100930790F99305810013050400F8
:101610001307000013061000232E11002306F1000B
:10162000EFF01FB19306F1009305C100130504000C
:101630001307000013061000EFF09FAF8320C101D5
:10164000032481011301010267800000130101FEE0
:1016500093570501A302F1009317850013150501A7
:10166000135505011355850033E5A70013970501B0
:101670002313A10093073000930606009305410051
:10168000138501971357070113064000232E1100FD
:1016900023240100231601002302F100EFF05FA9CB
:1016A0008320C101130500001301010267800000BF
:1016B000130101FE93075000930605009305C10036
:1016C000130710001306100013850197232E110035
:1016D0002306F100EFF0DFA58320C1011301010211
:1016E00067800000130101FE232E1100A3070100F3
:1016F0001305F100EFF0DFFB8347F10093F72700BC
:10170000E38807FE8320C101130101026780000006
:10171000130101FE930780F9232E11002306F10027
:10172000EFF09FE5EFF01FFC9305C10013070000E9
:10173000930600001306100013850197EFF05F9FDA
:101740008320C1011301010267800000130101FE23
:10175000232E1100A30701001305F100EFF05FF540
:101760008347F10093F71700E39807FE8320C10138
:101770001301010267800000130101FE93070002BC
:101780002302F10093570501A302F100931785008E
:1017900013150501135505011355850033E5A70001
:1017A000232E11002313A10023240100231601007E
:1017B000EFF09FDC93054100130700009306000043
:1017C0001306400013850197EFF09F96EFF01FF886
:1017D0008320C1011301010267800000130101FE93
:1017E000930780FD2302F10093570501A302F10046
:1017F0009317850013150501135505011355850031
:1018000033E5A700232E11002313A1002324010098
:1018100023160100EFF05FD6930541001307000087
:10182000930600001306400013850197EFF05F90C8
:10183000EFF0DFF18320C101130101026780000096
:10184000130101FE232A910023263101938401878D
:1018500093890197232C810023282101232441010E
:1018600093076000130700009306000013040500AF
:10187000130906001385090013061000138A0500DA
:1018800093850400232E11002380F400EFF05F8A7B
:10189000EFF05FE5EFF09FEB930720002380F4006B
:1018A00093570401A380F4009317840013140401D8
:1018B000135404011354840033E487001306090011
:1018C00093050A001385418723918400EF000042AD
:1018D00013064900131606011385090093850400B9
:1018E000130700009306000013560601EFF05F8413
:1018F000EFF0DFE58320C10103248101832441014E
:10190000032901018329C100032A81001305000076
:101910001301010267800000130101FE232C8100E6
:10192000232821012326310123244101232E1100E4
:10193000232A91009309050013040600138905006A
:10194000130A0008631204028320C10103248101E9
:1019500083244101032901018329C100032A810055
:1019600013010102678000009304040063748A007D
:1019700093040008130609001385090093850400E9
:10198000EFF0DFCC33099900B38999003304944018
:101990006FF05FFB130101FE232E1100232C810049
:1019A000232A9100EFF01FBA13054000EFF01FBB90
:1019B00013844183EFE01FC8B707007013050400CC
:1019C0002320F40023020400EFE09FDB9384C18313
:1019D000B7670170930581002324F100138504008B
:1019E000930700402316F100EFF04F8F130504001A
:1019F000EFE09FF113850400EFE09FF1EFF01FBBD4
:101A0000EFF0DFBEEFF0DFD0EF00006CEFE0DFF0D3
:101A10008320C101032481018324410113010102B8
:101A2000678000006FF08F85B777017003A507000E
:101A3000678000003335A0002384A1846780000004
:101A4000130101FFB7870100232601009387F7697F
:101A500063160500130101016780000023260100C1
:101A60000327C10063F8E7001305F5FF1375F50FB1
:101A70006FF01FFE0327C100130717002326E100A4
:101A80006FF01FFE23A00184130101FD93071000D6
:101A90001305200023248102232611022322910210
:101AA00023202103232E3101232C4101232A51011C
:101AB0002328610123267101232481012384F184D9
:101AC00037040102EFF0DFF7EFF01FF623AEA1B00D
:101AD000E36C85FEEFF00F88EFF0DFEB13055000AD
:101AE000EFF01FF6EFE09FB6B70700403305F500B3
:101AF0001335150037F901002384A18493040000F5
:101B0000EF004012138A018423A001841309898401
:101B100093894184B70A0040138B8184930BA00002
:101B2000130C20001384C19B83270A00938717009E
:101B300023A0F1846390270383A709001385040081
:101B400093C414009387170023A2F184EFF0DFA160
:101B500023A00184EFE09FAF83470B0033055501BD
:101B6000133515003375F5002384A18483A709007C
:101B7000938767FF6392070263000502EF00000E80
:101B8000630C050083C78184638807001305100078
:101B9000EFF09F9DEFE08FE683A709006394770144
:101BA0009307000023A2F18483C79184639C0702FA
:101BB00083C7A1846388070263808703130730000B
:101BC0006386E70213071000639CE7000325040007
:101BD000EFF09FBA6F00C00003250400EFF01FC0B4
:101BE00023850184EFF01FE46FF01FF403268400C7
:101BF0008325440003250400EFF01FD26FF05FFE41
:101C00002385A184131626001385C19B6F00000E47
:101C100093071000A384F18467800000A3840184EB
:101C200067800000130101FF2324810017240000B6
:101C3000130444351306040093050008130500003F
:101C400023261100EFF09FA08320C10023A68184EA
:101C5000032481001301010167800000130101FFCB
:101C6000232481001384C1848327040023261100C8
:101C700003A50700630C05029316050193D6060120
:101C8000370701006394060403A647006370E60467
:101C9000B7450080EFF05FC88327040013060000FB
:101CA0003745008083A54700EFF01F858327040098
:101CB0008320C1000324810083A787003385A740C8
:101CC00013351500130101016780000013050000A2
:101CD0006FF0DFFD9307F0FF1306F6FF6314F600C5
:101CE000678000002300B5006FF01FFF930700001E
:101CF0006314F600678000003387F5008346070011
:101D00003307F500938717002300D7006FF05FFEBD
:101D10009387018583A70700130101FE232E11007D
:101D2000A307A1001307E0006362F7041707000090
:101D30001307474393972700B387E70083A707005C
:101D4000B387E70067800700238001868347F1009F
:101D50001307A0016398E7021307100023AAE18488
:101D60002380E186238EF1A6EFF09FEA93874185D9
:101D700083A707008320C10123A8F1841301010276
:101D8000678000009307F00023AAF1846FF01FFE24
:101D90000347F1009307F00CE316F7FE93072000CA
:101DA00023AAF18403C70186930717002380F186D5
:101DB0009387C1A7B387E7001307F0FC2380E700F0
:101DC0006FF0DFFA0347F1009307C00FE31CF7FA47
:101DD0009307300023AAF18403C7018693071700F5
:101DE0002380F1869387C1A7B387E7001307C0FF5D
:101DF0006FF0DFFC0347F1009307D001E314F7F81D
:101E00009307400023AAF18483C6018693871600B6
:101E10002380F1869387C1A7B387D7001306C0003C
:101E2000930500001385019D2380E700EFF09FEAF2
:101E30006FF0DFF30347F10083C6018693051000BE
:101E40002388E19C938716002380F1869387C1A79E
:101E5000B387D700130600001305F1002380E700C5
:101E6000EFF08FE923ACA184930750006FF0DFF10E
:101E70008347F100930510001305F100A388F19C3E
:101E80009387818503A60700EFF00FE703C701865C
:101E900023ACA184930717002380F1869387C1A701
:101EA000B387E7000347F1002380E7009307600052
:101EB0006FF09FED8347F100930510001305F100CB
:101EC0002389F19C9387818503A60700EFF0CFE279
:101ED00003C7018623ACA184930717002380F186F2
:101EE0009387C1A7B387E7000347F1002380E7008A
:101EF000930770006FF05FE98347F10093051000CE
:101F00001305F100A389F19C9387818503A607003F
:101F1000EFF08FDE03C7018623ACA184930717007F
:101F20002380F1869387C1A7B387E7000347F100B9
:101F30002380E700A3800186930790006FF0DFE421
:101F400003C7118693071700A380F1869387019D2D
:101F5000B387E7000347F100930510001305F10074
:101F60002382E7009387818503A60700EFF0CFD88F
:101F700003C7018623ACA184930717002380F18651
:101F80009387C1A7B387E7000347F1002380E700E9
:101F900003C7118693078000E31AF7DC83C7319DDE
:101FA000639607009307B0006FF01FDE9307A00051
:101FB0006FF09FDD03C70186930717002380F1862A
:101FC0009387C1A7B387E7000347F100930510008B
:101FD0001305F1002380E7009387818503A607009E
:101FE000EFF08FD123ACA18483C7319D03C7018655
:101FF00093870701E31CF7D66FF0DFFA83C60186EB
:10200000938716002380F1860347F1009387C1A7C9
:10201000B387D7002380E70023AEE1849307C00095
:102020006FF09FD683C70186138717002380E18650
:102030001387C1A73307F7009387C18583A70700DC
:102040008346F10093978700B3E7D7002300D700BA
:1020500023AEF1849307D0006FF01FD383C70186AE
:10206000138717002380E1861387C1A73307F70082
:102070009387C18583A707008346F1009397870064
:10208000B3E7D7002300D70023AEF1849307E00025
:102090006FF09FCF83C70186138717002380E186E7
:1020A0001387C1A73307F7009387C18583A707006C
:1020B0008346F10093978700B3E7D7002300D7004A
:1020C00023AEF1846FF09FCA23AA018423A8018460
:1020D00023AE018423AC01841306C00093050000E5
:1020E0001385019D6FF01FBF9387C18503A707006C
:1020F0009387818583A70700130101FE232E11001A
:10210000631EF7029387018503A707009307E0008A
:102110006316F7029306F1001386C19D9385C1A84B
:102120001385019DA3070100EFE09FA96318050037
:102130008345F1001385C19DEFE0DF98EFF0DFF8F4
:102140008320C10123AA018423A801841301010271
:102150006780000000000000000000000000000098
:10216000E8FBFFFF30FCFFFF64FCFFFF94FCFFFF78
:10217000D4FCFFFF10FDFFFF54FDFFFF98FDFFFFA4
:102180000CFCFFFFE0FDFFFF54FEFFFF9CFEFFFF86
:10219000C4FEFFFFFCFEFFFF34FFFFFF0000000056
:040000058000000077
:00000001FF
